S01B0000617474696E7938352D6D6D61373636302D41532E7372656307
S11300000EC028C027C026C025C024C023C022C0DB
S113001021C020C01FC01EC01DC01CC01BC0112495
S11300201FBECFE5D2E0DEBFCDBF11E0A0E6B0E059
S1130030E6EAF5E002C005900D92A036B107D9F7C3
S113004021E0A0E6B1E001C01D92AE36B207E1F7AF
S113005088D0A7C2D5CF00C000C000C000C000C077
S113006000C000000895BB98BC98C398C498089534
S1130070BB9AF1DF1DD00895BC9AEDDFBB98EBDF8E
S1130080BC98E9DFBB9AE7DF13D00895082EBB9A2A
S1130090E2DF802D0DD0882311F002D0F8CF08952F
S11300A0BC9ABB9AD8DFBC98D6DFBB98D4DF08953E
S11300B00894881F01C0880F59F0BC9A18F40000F6
S11300C0BB9802C0BB9A00C0C6DFBC98C4DFF3CFA4
S11300D0BC9ABB98C0DFBC98B49BFECF8827B39969
S11300E081E0B9DF99270895882701C081E071E094
S11300F0BC9ABB98B0DFBC98AEDFB49BFECF8894AB
S1130100B3990894771FA0F7BC9A813011F0BB987B
S113011001C0BB9AA0DFBC98B49BFECF9CDF872FA5
S113012099270895CF93DF93D82FC62F88E9A0DFAE
S11301308D2FBEDF8C2FBCDFB3DFDF91CF9108950D
S11301401F93CF93DF93182FEB0188E991DF812F61
S1130150AFDF89E991DFC8DF8883DF91CF911F91F9
S11301600895CF93DF9300D01F92CDB7DEB77BDF26
S113017060E087E0D7DF60E088E0D4DF64EE86E00B
S1130180D1DF6BE089E0CEDF6BE08AE0CBDF6FEF9D
S113019085E0C8DF69E187E0C5DF84E087BBBE0195
S11301A06D5F7F4F80E0CCDFBE016E5F7F4F81E0EB
S11301B0C7DFBE016F5F7F4F82E0C2DFEB81F0E0FB
S11301C0EE0FFF1FEE0FFF1FE05AFF4FC080D180DC
S11301D0E280F380C0926401D0926501E0926601EE
S11301E0F0926701EA81F0E0EE0FFF1FEE0FFF1FB0
S11301F0E05AFF4F80809180A280B38080926A0190
S113020090926B01A0926C01B0926D01E981F0E0D3
S1130210EE0FFF1FEE0FFF1FE05AFF4F408051808B
S11302206280738040926001509261016092620129
S11302307092630120E030E040EA50E4C701B60167
S11302403CD09B01AC01C501B40137D09B01AC018A
S1130250C301B20132D095D060936901A701960120
S1130260C701B6010FD16B017C01A5019401C50141
S1130270B40108D19B01AC01C701B6011ED06B01CA
S11302807C01A3019201C301B201FCD09B01AC012A
S1130290C701B60112D020E030E040E050E4EED0D7
S11302A018160CF07CCFC29A8FE39CE90197F1F702
S11302B000C00000C29873CF5058BB27AA270ED0A5
S11302C0A3C094D030F099D020F031F49F3F11F4C2
S11302D01EF489C00EF4E095E7FB7FC0E92FA5D09A
S11302E080F3BA17620773078407950718F071F44F
S11302F09EF5BDC00EF4E0950B2EBA2FA02D0B0178
S1130300B90190010C01CA01A0011124FF27591B56
S113031099F0593F50F4503E68F11A16F040A22F5C
S1130320232F342F4427585FF3CF469537952795CD
S1130330A795F0405395C9F77EF41F16BA0B620BCC
S1130340730B840BBAF09150A1F0FF0FBB1F661F13
S1130350771F881FC2F70EC0BA0F621F731F841F56
S113036048F4879577956795B795F7959E3F08F07C
S1130370B3CF9395880F08F09927EE0F979587953B
S113038008955BD088F09F5790F0B92F9927B75103
S1130390A0F0D1F0660F771F881F991F1AF0BA9545
S11303A0C9F712C0B13081F062D0B1E008955FC0E6
S11303B0672F782F8827B85F39F0B93FCCF386953B
S11303C077956795B395D9F73EF490958095709598
S11303D061957F4F8F4F9F4F089597F99F6780E8EE
S11303E070E060E008959FEF80EC089500240A9483
S11303F01616170618060906089500240A941216FC
S11304001306140605060895092E0394000C11F42E
S1130410882352F0BB0F40F4BF2B11F460FF04C0DB
S11304206F5F7F4F8F4F9F4F089557FD9058440F34
S1130430551F59F05F3F71F04795880F97FB991F3F
S113044061F09F3F79F087950895121613061406FC
S1130450551FF2CF4695F1DF08C016161706180689
S1130460991FF1CF86957105610508940895E89464
S1130470BB2766277727CB0197F908956ED008F438
S11304808FEF08950AD0C0CFB1DF28F0B6DF18F09F
S1130490952309F0A2CFA7CFEBCFC7DFA8F3992309
S11304A0D9F35523C9F3950F50E0551FAA27EE271A
S11304B0FF27BB2700240894679520F4E20FF31F5D
S11304C0B41F0A1E220F331F441FAA1F6695A9F7E3
S11304D0779530F4F30FB41F0A1E121E08F46395C7
S11304E0330F441FAA1F221F769599F7879520F48E
S11304F0B40F0A1E121E631F440FAA1F221F331FAC
S11305008695A9F7862F712D602D11249F57504091
S11305108AF0E1F088234AF0EE0FFF1FBB1F661F2D
S1130520771F881F91505040A9F79E3F510570F0E6
S113053054CF9ECF5F3FECF3983EDCF386957795DE
S11305406795B795F795E7959F5FC1F7FE2B880FE1
S1130550911D9695879597F90895990F0008550F61
S1130560AA0BE0E8FEEF16161706E807F907C0F035
S113057012161306E407F50798F0621B730B840B3D
S1130580950B39F40A2661F0232B242B252B21F417
S113059008950A2609F4A140A6958FEF811D811DB7
S10905A00895F894FFCF5A
S11305A6000000001283403D1283C03D4E62103E9F
S11305B61283403EB29D6F3E3BDF8F3E9EEFA73EC9
S11305C60000C03E6210D83EC520F03E9318043F9A
S11305D6C520103F6DE71B3F9EEF273FCFF7333F04
S11305E60000403F31084C3F6210583F9318643F67
S11305F6C520703F6DE77B3FCFF7833FE7FB893F1D
S11306060000903F1904963F31089C3F4A0CA23FD4
S11306166210A83FB6F3AD3FCFF7B33FE7FBB93F50
S11306260000C0BFE7FBB9BFCFF7B3BFB6F3ADBF9A
S11306366210A8BF4A0CA2BF31089CBF190496BF1A
S1130646000090BFE7FB89BFCFF783BF6DE77BBF91
S1130656C52070BF931864BF621058BF31084CBFE1
S1130666000040BFCFF733BF9EEF27BF6DE71BBF28
S1130676C52010BF931804BFC520F0BE6210D8BEB3
S11306860000C0BE9EEFA7BE3BDF8FBEB29D6FBE0D
S1130696128340BE4E6210BE1283C0BD128340BD9B
S9030000FC
