S01B0000617474696E7938352D6D6D61373636302D41532E7372656307
S11300000EC01DC01CC01BC01AC019C018C017C028
S113001016C015C014C013C012C011C010C01124E2
S11300201FBECFE5D2E0DEBFCDBF20E0A0E6B0E04A
S113003001C01D92A236B207E1F769D090C0E0CFAB
S113004000C000C000C000C000C000C0000008958F
S1130050BB98BC98C398C4980895BB9AF1DF1DD08F
S11300600895BC9AEDDFBB98EBDFBC98E9DFBB9A3F
S1130070E7DF13D00895082EBB9AE2DF802D0DD060
S1130080882311F002D0F8CF0895BC9ABB9AD8DF28
S1130090BC98D6DFBB98D4DF08950894881F01C0AC
S11300A0880F59F0BC9A18F40000BB9802C0BB9AA0
S11300B000C0C6DFBC98C4DFF3CFBC9ABB98C0DFD6
S11300C0BC98B49BFECF8827B39981E0B9DF992708
S11300D00895882701C081E071E0BC9ABB98B0DF25
S11300E0BC98AEDFB49BFECF8894B3990894771F75
S11300F0A0F7BC9A813011F0BB9801C0BB9AA0DF75
S1130100BC98B49BFECF9CDF872F99270895A0DF6E
S1130110C5E088E9A2DF8093610087E0BEDF89E162
S1130120BCDFB3DF8FEC97E00197F1F700C000006C
S113013088E993DF8093610082E0AFDF89E991DF92
S1130140C8DF80936000C09361009FE72AE186E0E6
S1130150915020408040E1F700C00000DACFF894CD
S1050160FFCFCB
S9030000FC
